:1000000012C02AC029C028C027C026C025C024C0CD
:1000100023C022C021C020C01FC01EC01DC01CC0E4
:100020001BC01AC019C011241FBECFEDCDBF10E0F8
:10003000A0E6B0E0E0E5F2E002C005900D92A23645
:10004000B107D9F710E0A2E6B0E001C01D92A536D5
:10005000B107E1F774D0FAC0D3CF0F931F93CF93BA
:10006000DF93959A949810926300E2EFF1E010E22A
:1000700040E12AEF30E048C082B3812782BB82B3DF
:10008000842782BBC9010197F1F782B3812782BB24
:1000900082B3842782BB50E004C0C9010197F1F705
:1000A0005F5F5017D4F35093620082B3812782BB05
:1000B00082B3842782BBC9010197F1F782B38127FC
:1000C00082BB82B3842782BB6091600050E004C091
:1000D000C9010197F1F75F5F5617D4F3509362009F
:1000E00082B3812782BB82B3842782BBC901019777
:1000F000F1F782B3812782BB82B3842782BB8091D0
:1001000063008F5F8093630080916300C82FDD27B9
:10011000C7FDD09500916000602F772767FD70952F
:10012000660F771FCF014FD0C617D7070CF4A4CFA7
:1001300094989598DF91CF911F910F910895A0E029
:10014000B0E0E4EAF0E05AC0109264008C9A8D9A14
:1001500008EA11E66EE1A62ECDE2D0E05FE0B52E12
:100160004AE0C42E36E0D32E25E0E22E92E0F92EAE
:10017000C8010197F1F7A0926000FE010995C8013E
:100180000197F1F7B0926000FE010995C80101974F
:10019000F1F7C0926000FE010995C8010197F1F7DF
:1001A000D0926000FE010995C8010197F1F7E09235
:1001B0006000FE010995C8010197F1F7F092600017
:1001C000FE010995D5CF97FB092E07260AD077FDAA
:1001D00004D028D006D000201AF4709561957F4F86
:1001E0000895F6F7909581959F4F08952F923F922D
:1001F0004F925F926F927F928F929F92AF92BF9237
:10020000CF92DF92EF92FF920F931F93CF93DF93E2
:10021000CDB7DEB7CA1BDB0B0FB6F894DEBF0FBE3F
:10022000CDBF0994AA1BBB1B51E107C0AA1FBB1F6E
:10023000A617B70710F0A61BB70B881F991F5A9572
:10024000A9F780959095BC01CD010895F894FFCF52
:020250000500A7
:00000001FF
