:1000000012C02AC029C028C027C026C025C024C0CD
:1000100023C022C021C020C01FC01EC01DC01CC0E4
:100020001BC01AC019C011241FBECFEDCDBF10E0F8
:10003000A0E6B0E0ECEBF3E002C005900D92A03634
:10004000B107D9F710E0A0E6B0E001C01D92A936D3
:10005000B107E1F75ED1B0C1D3CFC59AC79ABF9AB5
:10006000BD9A8FEF8FB98AE28DB980EF8EB908956E
:100070008091680008958EB991E08BE2292F2A952E
:10008000F1F78DB9B79BFECF292F2A95F1F78DB9DE
:10009000769BF4CF81E08A95F1F78FB19FEF9FB9FE
:1000A000BD9A0895C79AC79BFECF81E0982F9A9575
:1000B000F1F7C5988A95F1F7C798C59A779905C061
:1000C00083E08093680080E0089581E00895C598FA
:1000D000C79AB79BFECF81E0982F9A95F1F7C59A02
:1000E0008A95F1F7759905C084E08093680080E0F7
:1000F000089581E00895A0E0B0E0E0E8F0E02FC1CD
:100100008C01E62E80916800982F91609093680092
:10011000F801908190FD03C0836080936800C2DF86
:10012000882309F447C0FE2CE801CC24CA94DD24BE
:10013000D39480916800837041F1C79888818FB90A
:1001400080EF99DFBD988EEF96DF9091680080FF79
:1001500006C090FF02C081E010C082E00EC0892F6F
:100160008570843069F4F801808181608083D09249
:10017000680098DF8823B1F48AE0809368001AC091
:1001800021969E7F909368000FC0BD9880EF73DF2B
:100190008993F1E0FF1611F4CFB801C01FB88EEFBC
:1001A0006ADF02C0FE2CE801FA9419F690DF91E0B4
:1001B000882309F490E0892FCDB7DEB7E8E0EBC0E3
:1001C0001092680098DF0895FC0120812E7F208323
:1001D00024E0209368008FDF08950F931F93CF933F
:1001E000DF938C01EA0182B3806382BB28E53BE1A7
:1001F00049E150E0CA010197F1F721503040D1F7B1
:1002000082B38F7C82BB28EB3BE049E150E0CA011E
:100210000197F1F721503040D1F7AB0168EA71E660
:10022000E9E1F0E02BC0959ACB010197F1F79598A1
:10023000CB010197F1F72F5F3F4F05C020E030E081
:10024000D801A40FB51F8C91992787FD9095281789
:1002500039074CF3949A28E53BE1CF010197F1F778
:1002600021503040D1F7949828EB3BE0CF01019723
:10027000F1F721503040D1F74F5F5F4F4C175D07CA
:10028000ECF282B3806382BB88E59BE129E130E038
:10029000F9013197F1F70197D9F782B38F7C82BBCF
:1002A000DF91CF911F910F910895CF93DF936091CC
:1002B000680070E061157105F1F040E050E0A0E1E8
:1002C000E9E1F0E0C0E5D3EC82B38A2782BB28EBFA
:1002D0003BE0CF010197F1F721503040D1F782B3D5
:1002E0008A2782BBCE010197F1F74F5F5F4F461718
:1002F000570754F30BC0959A88EB9BE029E130E057
:10030000F9013197F1F70197D9F79598DF91CF91DE
:10031000089581B3806381BB82B38F7C82BB80E50B
:1003200093EC0197F1F799DEC0DF8CE380936000D6
:1003300082E0809361001092620080E690E063E0CA
:100340003FDFB3DF80E090E008952F923F924F921D
:100350005F926F927F928F929F92AF92BF92CF9255
:10036000DF92EF92FF920F931F93CF93DF93CDB75E
:10037000DEB7CA1BDB0B0FB6F894DEBF0FBECDBFD6
:1003800009942A88398848885F846E847D848C84A7
:100390009B84AA84B984C884DF80EE80FD800C81B0
:1003A0001B81AA81B981CE0FD11D0FB6F894DEBF93
:0C03B0000FBECDBFED010895F894FFCF03
:00000001FF
