:1000000012C02AC029C028C027C026C025C024C0CD
:1000100023C022C021C020C01FC01EC01DC01CC0E4
:100020001BC01AC019C011241FBECFEDCDBF10E0F8
:10003000A0E6B0E0ECEFF0E002C005900D92A23631
:10004000B107D9F710E0A2E6B0E001C01D92A336D7
:10005000B107E1F724D050C0D3CF809160009091D8
:1000600061009C01215030402431310530F0209155
:1000700062003FE023272093620020916200332733
:1000800027FD30952F7030702115310511F4019640
:1000900001C00197909361008093600008951F93C1
:1000A000CF93DF93109262008C9A8D9A959A10E20A
:1000B000CAEFD0E082B3812782BBCE010197F1F76E
:1000C00082B3812782BB209160003091610080E083
:1000D00090E004C0FE013197F1F701968217930773
:1000E000CCF382B3812782BBCE010197F1F782B3B3
:0C00F000812782BBB2DFDECFF894FFCF87
:0200FC000500FD
:00000001FF
