:1000000012C02AC029C028C027C026C025C024C0CD
:1000100023C022C021C020C01FC01EC01DC01CC0E4
:100020001BC01AC019C011241FBECFEDCDBF10E0F8
:10003000A0E6B0E0E4ECF1E002C005900D92A43639
:10004000B107D9F710E0A4E6B0E001C01D92A736D1
:10005000B107E1F77CD0B4C0D3CF20916400322F38
:10006000307F8091650090916600332331F58330B5
:10007000910591F08430910544F48130910581F12E
:100080008230910509F040C028C08430910539F0D4
:1000900085309105C9F506C084E090E026C085E072
:1000A00090E023C084E090E0909366008093650028
:1000B00080EF82278093640008958230910599F043
:1000C0008330910524F481309105F1F413C083301D
:1000D000910531F084309105B9F483E090E005C0DA
:1000E00082E090E002C081E090E09093660080930F
:1000F0006500089582E090E090936600809365002B
:1001000080EF822780936400089580916100909130
:1001100062009C01225030402331310530F02091A3
:1001200064003FE02327209364002091640033277C
:1001300027FD30952F7030702115310511F401968F
:1001400001C001979093620080936100089510921E
:10015000640081E090E09093660080936500899A46
:100160008A9A8B9A8C9A8D9AC1E0D0E002EE14E0C4
:1001700022B3CE010090650002C0880F991F0A9437
:10018000E2F7282B22BB409161005091620020E0F1
:1001900030E005C0C8010197F1F72F5F3F4F2417EA
:1001A0003507C4F322B3CE010090650002C0880F6A
:1001B000991F0A94E2F78095822382BB4EDFD8CF45
:0401C000F894FFCFE1
:0401C400000F000028
:00000001FF
