:1000000012C02AC029C028C027C026C025C024C0CD
:1000100023C022C021C020C01FC01EC01DC01CC0E4
:100020001BC01AC019C011241FBECFEDCDBF10E0F8
:10003000A0E6B0E0E6E0F1E002C005900D92A63B3C
:10004000B107D9F710E0A6EBB0E001C01D92A63BC6
:10005000B107E1F740D055C0D3CF9398929A20E0F2
:1000600030E0992787FD90956CE0AC01022E02C02C
:10007000559547950A94E2F740FD02C0949801C057
:10008000949A42B3462742BB42B3462742BB2F5FF6
:100090003F4F2830310549F708958052853530F4B7
:1000A000E82FF0E0E05AFF4F808101C08FEFD5DFED
:1000B000089580E0D2DF88EA91E60197F1F708958C
:1000C00091980895919A0895959888EE93E00197F4
:1000D000F1F7959A089581B38E6381BBF5DFC4E291
:1000E000D4EF80E0BADFCE010197F1F780E4B5DF0D
:1000F000CE010197F1F780E8B0DFCE010197F1F76B
:06010000F0CFF894FFCFE0
:1001060000FFFFFFFFFFFFFFFFFFFFFFFFFFFFFFF8
:10011600FFFFFFFFFFFFFFFFFFFFFFFFFFFFFFFFE9
:10012600FFEBB3F0FFFFFFFFFFFFFFFFB0FFFFFA9C
:10013600FFFFFFFFFFFFFFFFFFFFFFFFFFFFFFFFC9
:10014600FFFFFFFFFFFFFFFFFFFFFFFF0AFFFF337A
:06015600FFFF21FFB100D4
:00000001FF
