:1000000012C02AC029C028C027C026C025C024C0CD
:1000100023C022C021C020C01FC01EC01DC01CC0E4
:100020001BC01AC019C011241FBECFEDCDBF10E0F8
:10003000A0E6B0E0E6E0F2E002C005900D92A43642
:10004000B107D9F710E0A4E6B0E001C01D92A736D1
:10005000B107E1F777D0D5C0D3CF809161009091FF
:1000600062009C01225030402032310530F0209156
:1000700064003FE02327209364002091640033272D
:1000800027FD30952F7030702115310511F4019640
:1000900001C00197909362008093610008952091C0
:1000A0006400322F307F8091650090916600332389
:1000B00009F58230910571F18330910534F4009790
:1000C00079F181309105E9F528C08430910551F02E
:1000D0008430910524F08530910599F506C084E0BF
:1000E00090E020C085E090E01DC010926600109264
:1000F000650008958230910599F08330910524F4CC
:1001000081309105F1F413C08330910531F08430D2
:100110009105B9F483E090E005C082E090E002C070
:1001200081E090E09093660080936500089582E0FE
:1001300090E0909366008093650080EF8227809323
:10014000640008951092640081E090E0909366004E
:1001500080936500889A899A8A9A8B9A8C9A8D9A4C
:1001600081E088BB80E028E8E22E23E1F22EC1E0A6
:10017000D0E034EFC32E31E0D32E01C0812F11E047
:10018000B09B02C010E00FC0882369F4C70101973B
:10019000F1F7B09908C081E090916000913009F4C6
:1001A00080E08093600022B3CE010090650002C021
:1001B000880F991F0A94E2F7282B22BB4091610017
:1001C0005091620020E030E005C0C6010197F1F7D0
:1001D0002F5F3F4F24173507C4F322B3CE010090A1
:1001E000650002C0880F991F0A94E2F78095822368
:1001F00082BB55DF80916000813009F0BFCF2DDFD9
:06020000BDCFF894FFCF12
:04020600010F0000E4
:00000001FF
